:100000000C942A000C9447000C9447000C94470071
:100010000C9447000C9447000C9447000C94470044
:100020000C9447000C9447000C9447000C94470034
:100030000C9447000C9447000C9447000C94470024
:100040000C9447000C9447000C9447000C94470014
:100050000C94470011241FBECFE5D4E0DEBFCDBF16
:1000600011E0A0E6B0E0E4E1F0E102C005900D92FD
:10007000A43AB107D9F721E0A4EAB1E001C01D928A
:10008000A63AB207E1F70E94E1030C9408080C9429
:10009000000080E090E00C94A107BC0180E090E0BB
:1000A0000C94A7078EE79DE72BE782BB35E03A95D6
:1000B000F1F70000839908C08FE99FE00197F1F7FD
:1000C00000C0000081E30895849908C0EFE9FFE0D3
:1000D0003197F1F700C0000084E30895859908C0C6
:1000E0008FE99FE00197F1F700C0000087E30895D2
:1000F000869908C0EFE9FFE03197F1F700C00000F2
:100100008AE2089592BBF5E0FA95F1F70000839931
:1001100008C08FE99FE00197F1F700C0000082E37B
:100120000895849908C0EFE9FFE03197F1F700C026
:10013000000085E30895859908C08FE99FE0019745
:10014000F1F700C0000088E30895869908C0EFE940
:10015000FFE03197F1F700C0000080E3089522BB73
:10016000F5E0FA95F1F70000839908C08FE99FE068
:100170000197F1F700C0000083E30895849908C057
:10018000EFE9FFE03197F1F700C0000086E3089542
:10019000859908C08FE99FE00197F1F700C0000042
:1001A00089E30895869908C0EFE9FFE03197F1F7F8
:1001B00000C0000083E20895EFE9FFE03197F1F716
:1001C00000C0000072CFBF92CF92DF92EF92FF92F9
:1001D0000F931F93CF93DF9300D000D00F92CDB732
:1001E000DEB761E080E00E942E038E010F5F1F4F9B
:1001F0007E0125E0E20EF11C68010E945200B82E3B
:10020000982F990F990B9F938F9383E690E09F937C
:100210008F930E945903FFEF25EA8EE0F1502040B2
:100220008040E1F700C00000F601B1926F010F902D
:100230000F900F900F90EE15FF05F9F680E090E01B
:100240004AE0489F9001499F300D1124F8018191A7
:100250008F01982F990F990BC097820F931FEE155E
:10026000FF0579F70F900F900F900F900F90DF918F
:10027000CF911F910F91FF90EF90DF90CF90BF90A3
:1002800008950F931F93CF93DF930E94230360E0A1
:1002900080E00E942E0386E690E09F938F930E9459
:1002A000590361E080E00E942E038AE890E09F936A
:1002B0008F930E9459032FEF8FE097E221508040E7
:1002C0009040E1F700C000000E94230360E080E05E
:1002D0000E942E0384E790E00E943F0361E080E0EB
:1002E0000E942E030F900F900F900F90C0E0D0E06F
:1002F0008091A4019091A501892B19F10E94E3003E
:100300002091A4013091A5012817390709F0A0C058
:100310000E94230360E080E00E942E0382E890E0C8
:100320009F938F930E9459032FEF8FE097E2215004
:1003300080409040E1F700C000000E9423030F902E
:100340000F900E94230360E080E00E942E0384E06F
:1003500091E09F938F930E94590361E080E00E9497
:100360002E038AE890E00E943F038FEF9FE027E290
:10037000815090402040E1F700C000000E9423031C
:1003800060E080E00E942E0382E191E09F938F93D2
:100390000E94590361E080E00E942E030E94E30066
:1003A000EC010E94230360E080E00E942E0380E2C3
:1003B00091E09F938F930E94590361E080E00E9437
:1003C0002E038CE291E09F938F930E9459038FEF4D
:1003D0009DE222E2815090402040E1F700C0000001
:1003E0008DB79EB708960FB6F8949EBF0FBE8DBF0F
:1003F0000C171D0709F0B8C00E94230360E080E0DD
:100400000E942E038AE491E09F938F930E945903E8
:1004100061E080E00E942E038BE591E09F938F9333
:100420000E9459038FEF93ED20E3815090402040CC
:10043000E1F700C00000CE010E944D000F900F9028
:100440000F900F90CE01DF91CF911F910F910895E2
:100450000E94230360E080E00E942E0383E990E085
:100460009F938F930E9459038FEF9FE027E2815063
:1004700090402040E1F700C0000021960F900F90BF
:10048000C330D10509F052C00E94230360E080E030
:100490000E942E0388EA90E09F938F930E94590355
:1004A00061E080E00E942E0389EB90E09F938F93A0
:1004B0000E9459038FEF93ED20E38150904020403C
:1004C000E1F700C000000F900F900F900F90C0E078
:1004D000D0E00E94230360E080E00E942E038EECB7
:1004E00090E09F938F930E94590361E080E00E9407
:1004F0002E03DF93CF938EED90E09F938F930E9416
:1005000059038FEF91EE24E0815090402040E1F7B5
:1005100000C0000021960F900F900F900F900F9049
:100520000F90CC33D105A9F6C0E0D0E00E942303A0
:1005300089EE90E09F938F930E9459038FEF9FE085
:1005400027E2815090402040E1F700C000000E9467
:10055000230385EF90E09F938F930E9459030F90A0
:100560000F900F900F90C4CE0E94230389E391E077
:100570009F938F930E9459030E94E3008C010F9078
:100580000F90C817D90709F437CF0E94230360E002
:1005900080E00E942E0388E691E09F938F930E9453
:1005A000590361E080E00E942E0389EE90E09F9362
:1005B0008F930E9459038FEF9DE222E28150904079
:1005C0002040E1F700C000000F900F900F900F90B7
:1005D0000FCF80FF17C0DB9A81FF16C0DC9A82FF25
:1005E00015C0DD9A83FF14C0DE9ADA9A85E08A95F9
:1005F000F1F70000DA9887EC90E00197F1F700C07E
:1006000000000895DB98E8CFDC98E9CFDD98EACFC9
:10061000DE98EBCFCF93C82F611599F0D89AD9986F
:100620008C2F82958F700E94E9028C2F8F700E9410
:10063000E90287EC90E00197F1F700C00000CF914C
:100640000895D898ECCF60E081E00E940A038FE320
:100650009FE10197F1F700C000000895615090E01C
:10066000633028F4E62FF0E0E05AFF4F9081890FC5
:1006700060E080680C940A0361E00C940A03CF9355
:10068000DF93EC018881811103C0DF91CF91089540
:1006900021960E943C03F6CFCF93DF93EC01888133
:1006A000811103C0DF91CF91089521960E943C03F0
:1006B000F6CFCF93DF93CDB7DEB7A0970FB6F89400
:1006C000DEBF0FBECDBFAE014B5D5F4FFA01619142
:1006D0007191AF01CE0101960E94EA04CE0101960C
:1006E0000E943F03A0960FB6F894DEBF0FBECDBFA9
:1006F000DF91CF910895DF9A0895D09AD19AD29A36
:10070000D39AD49AD59AD69AD79A0E947B032FEF80
:1007100080E792E0215080409040E1F700C0000067
:10072000D898D99883E00E94E9028FE19EE401976E
:10073000F1F700C0000083E00E94E90287E592E043
:100740000197F1F700C0000083E00E94E90287E50D
:1007500092E00197F1F700C0000082E00E94E902F8
:1007600060E088E20E940A0360E088E00E940A03D9
:100770000E94230360E086E00E940A0360E08CE0B0
:100780000C940A03DF9808950F931F93CF93DF9380
:10079000880F880F880F8873C62F60E08064D72F7A
:1007A0000E940A038E01085F1F4F61E089910E9439
:1007B0000A03C017D107C9F7DF91CF911F910F919D
:1007C00008950F931F93CF93DF9387E081BB88E752
:1007D00082BB80E10E947D030E9423030E944900A6
:1007E0008F3F980709F458C08093A4019093A50106
:1007F000C0E0D0E00E94230360E080E00E942E036E
:1008000085E791E09F938F930E9459030E94E30034
:100810008C010F900F908091A4019091A5018017F9
:10082000910709F042C00E94230360E080E00E942B
:100830002E0382E890E09F938F930E9459038FEFDD
:1008400099E628E1815090402040E1F700C0000087
:100850000E94230385E891E09F938F930E945903A0
:100860008FEF99E628E1815090402040E1F700C0E9
:1008700000000E94230382E991E09F938F930E94DE
:1008800059030F900F900F900F900F900F90DF91E2
:10089000CF911F910F91089582ED94E08093A40170
:1008A0009093A5010E944D00A3CF0115110559F4A5
:1008B0000E9441018093A4019093A5010E944D00E4
:1008C0000E94230397CF0E94230360E080E00E94F0
:1008D0002E0383E990E09F938F930E9459038FEF3B
:1008E00099E628E1815090402040E1F700C00000E7
:1008F00021960F900F90C330D10509F04FC00E9490
:10090000230360E080E00E942E0388EA90E09F933A
:100910008F930E94590361E080E00E942E0389EBCF
:1009200090E09F938F930E9459038FEF97EA21E6FF
:10093000815090402040E1F700C000000F900F90E0
:100940000F900F90CCE3D0E00E94230360E080E0A2
:100950000E942E038EEC90E09F938F930E94590388
:1009600061E080E00E942E03DF93CF938EED90E054
:100970009F938F930E9459038FEF91EE24E0815053
:1009800090402040E1F700C0000021970F900F90A9
:100990000F900F900F900F902097B1F68091A401C7
:1009A0009091A5018017910709F471CF0E9423034C
:1009B00089EE90E09F938F930E9459038FEF99E601
:1009C00028E1815090402040E1F700C000000F90E6
:1009D0000F9010CFAEE0B0E0E0EFF4E00C94DF0752
:1009E0008C0186E08C8309831A838FEF9FE78D83C8
:1009F0009E83CE0101960E9407052F813885020F44
:100A0000131FF80110822E96E4E00C94FB07ACE073
:100A1000B0E0EDE0F5E00C94D4075C016B017A01E5
:100A2000FC0116821782838181FFD3C12AE0522EF6
:100A3000F5012381F60123FD859123FF81916F014B
:100A4000811509F42CC1853239F423FD959123FFDA
:100A500091916F01953229F4B50190E00E9402074F
:100A6000E7CF30E0712C00E010E0103210F59B323F
:100A7000C9F050F49032B9F09332C9F09E3261F56A
:100A800016FD0DC1106405C09D3279F0903399F4C4
:100A90001160F60123FD959123FF91916F01911152
:100AA000E4CF23C012601460F4CF1860F2CF10615D
:100AB000F0CF17FD1AC080ED890F8A30F8F616FFC7
:100AC00005C0759C800D1124782EE3CF059D800D07
:100AD0001124082F1062DDCF9C3611F41068D9CF95
:100AE0009C3409F440C09836A1F2892F8F7D85543B
:100AF0008330D8F1933609F45FC0933709F46AC0A4
:100B0000933509F476C0943619F0993609F0A2C0ED
:100B1000F70117FF98C061917191819191917F01C7
:100B20001F7697FF03C00E94C90710682AE030E0D3
:100B30004E014FEF841A940AA4010E944307682EC5
:100B4000681816FFD2C0812F8E7F671408F0CCC0C2
:100B500014FF1DC112FD11C11E7E972C812F8678B6
:100B600009F4CEC00FC131E094CF311509F1F8E09E
:100B7000EF0EF11C8FE3898391E0692E712C4E01F9
:100B80008FEF881A980A1F7713FD04C0601671044E
:100B900008F43FC06114710409F042C0011509F462
:100BA00047CFB50180E290E00E9402070150F6CFE6
:100BB00044E0E40EF11CDECFF70180818983F2E08E
:100BC000EF0EF11C81E0682E712C4E014FEF841A5C
:100BD000940AD9CFF701819091907F01672D70E041
:100BE00016FD02C06FEF7FEFC4010E94F7063C01C3
:100BF000CACFF701819091907F01672D70E016FDBB
:100C000002C06FEF7FEFC4010E94EC063C01106848
:100C1000BBCFB50180E290E00E9402070150B6CF41
:100C2000F40117FD859117FF81914F01B50190E007
:100C30000E94020781E0011101C080E0081BF1E081
:100C40006F1A7108A7CF61917191872F880F880B58
:100C5000982F65CF9537C9F41F7E1C872AE030E0B6
:100C6000FC85F7FF3BC0F7016191719181919191F2
:100C70007F014E014FEF841A940AA4010E9443079A
:100C8000682E68181C851F775CCF812F897F8C8721
:100C9000903799F058F49835B9F09F36E1F0F501A6
:100CA000868197812C96EFE00C94F0079837B9F77E
:100CB00014FD06C020E130E0D3CF9C8590619C8775
:100CC000EC85E460EC87F6CF14FF02C016601C8749
:100CD00020E132E0C5CF28E030E0C2CFF7016191DA
:100CE000719180E090E0C4CF182F962C14FF36CF7E
:100CF000FE01E60DF11D8081803309F041C0197EAF
:100D000013FD0EC010FF4FC0762C901618F4700E15
:100D10007918902E802F8919091508F480E0980E13
:100D2000901608F042C0091914FF41C0B50180E3D4
:100D300090E00E94020712FF09C088E590E011FDD3
:100D400002C088E790E0B5010E9402076714D0F165
:100D50004E018FEF881A980A6A94FE013296E60DCA
:100D6000F11D3F01F30182913F01B50190E00E9426
:100D7000020768147904B1F711CF972C182FB8CF58
:100D800012FD02C09394BCCF93949394B9CF972C47
:100D9000182FE4CEB50180E290E00E940207839410
:100DA0008016C0F3B7CF892CFBCF00E0BDCF812FD9
:100DB000867861F280E211FD8BE217FD8DE2B501CC
:100DC00090E0C2CFB50180E390E00E9402077A94E0
:100DD000BDCF8FEF9FEF66CFFC0105906150704053
:100DE0000110D8F7809590958E0F9F1F0895FC01F4
:100DF0006150704001900110D8F7809590958E0F4A
:100E00009F1F0895A3E0B0E0E8E0F7E00C94E0074E
:100E1000182F99836A837B83DB0113968C9181FD64
:100E200009C01FEFBFEFB983812F99812396E3E0BB
:100E30000C94FC0782FF1BC0EA81FB81268137816D
:100E4000848195812817390754F40190F081E02DB1
:100E5000CF010196AA81BB818D939D931083EA8176
:100E6000FB8186819781019686839783DDCFAA8156
:100E7000BB811896ED91FD911A97BD01812F0995BF
:100E8000892B69F3CECFFA01AA27283051F12031FE
:100E900081F1E8946F936E7F6E5F7F4F8F4F9F4F0E
:100EA000AF4FB1E03ED0B4E03CD0670F781F891F50
:100EB0009A1FA11D680F791F8A1F911DA11D6A0F1E
:100EC000711D811D911DA11D20D009F468943F91D1
:100ED0002AE0269F11243019305D3193DEF6CF01D0
:100EE0000895462F4770405D4193B3E00FD0C9F796
:100EF000F6CF462F4F70405D4A3318F0495D31FD03
:100F00004052419302D0A9F7EACFB4E0A695979555
:100F1000879577956795BA95C9F70097610571052B
:100F200008959B01AC010A2E069457954795379575
:100F30002795BA95C9F7620F731F841F951FA01DCF
:100F40000895A8E1B0E042E050E00C94AE070E94A2
:100F5000BC07272F0C94BD07DC01CB01FC01E199F4
:100F6000FECF06C0FFBBEEBBE09A31960DB20D92EC
:100F700041505040B8F70895262FE199FECF9FBB0E
:100F80008EBB2DBB0FB6F894E29AE19A0FBE019684
:100F9000089590958095709561957F4F8F4F9F4FE5
:100FA00008952F923F924F925F926F927F928F920D
:100FB0009F92AF92BF92CF92DF92EF92FF920F93E8
:100FC0001F93CF93DF93CDB7DEB7CA1BDB0B0FB6F2
:100FD000F894DEBF0FBECDBF09942A8839884888AF
:100FE0005F846E847D848C849B84AA84B984C88445
:100FF000DF80EE80FD800C811B81AA81B981CE0F3C
:10100000D11D0FB6F894DEBF0FBECDBFED01089520
:04101000F894FFCF82
:10101400401454256300456E74657220746865201D
:101024006F6C64004F6C642050617373776F7264EB
:101034003A00636F72726563742050617373776FE3
:10104400726400496E636F727265637420506173D9
:1010540073776F72642E2E00552068617665204583
:101064006E7465726564203300696E636F727265B5
:1010740063742070617373776F72642E2E00706CCA
:101084006561736520776169742E2E2E2E002564A8
:10109400207365636F6E64730054727920416761D5
:1010A400696E2E2E004F6C642050617373776F72DB
:1010B400643A2000456E74657220746865206E651C
:1010C40077004E65772050617373776F72643A00CE
:1010D400436F6E6669726D20746865006E65772073
:1010E40070617373776F7264005265706561742008
:1010F40070617373776F72643A007468652070610D
:101104007373776F726420686173006265656E2023
:101114006368616E67656400496E636F72726563CC
:10112400742E2E2E00456E74657220706173737771
:101134006F72643A00756E6C6F636B65642E2E2E4D
:101144002E0053797374656D206973205265616450
:0411540079210000FD
:00000001FF
